{
  "_format": "hh-sol-artifact-1",
  "contractName": "Tasks",
  "sourceName": "contracts/Tasks.sol",
  "abi": [
    {
      "inputs": [],
      "stateMutability": "nonpayable",
      "type": "constructor"
    },
    {
      "anonymous": false,
      "inputs": [
        {
          "indexed": false,
          "internalType": "uint256",
          "name": "id",
          "type": "uint256"
        },
        {
          "indexed": false,
          "internalType": "string",
          "name": "title",
          "type": "string"
        },
        {
          "indexed": false,
          "internalType": "bool",
          "name": "finished",
          "type": "bool"
        }
      ],
      "name": "AddedTask",
      "type": "event"
    },
    {
      "anonymous": false,
      "inputs": [
        {
          "indexed": false,
          "internalType": "uint256",
          "name": "id",
          "type": "uint256"
        },
        {
          "indexed": false,
          "internalType": "bool",
          "name": "finished",
          "type": "bool"
        }
      ],
      "name": "TaskCompleted",
      "type": "event"
    },
    {
      "anonymous": false,
      "inputs": [
        {
          "indexed": false,
          "internalType": "uint256",
          "name": "id",
          "type": "uint256"
        },
        {
          "indexed": false,
          "internalType": "string",
          "name": "title",
          "type": "string"
        }
      ],
      "name": "TaskEdited",
      "type": "event"
    },
    {
      "inputs": [
        {
          "internalType": "string",
          "name": "_title",
          "type": "string"
        }
      ],
      "name": "createTask",
      "outputs": [],
      "stateMutability": "nonpayable",
      "type": "function"
    },
    {
      "inputs": [
        {
          "internalType": "uint256",
          "name": "_id",
          "type": "uint256"
        },
        {
          "internalType": "string",
          "name": "_title",
          "type": "string"
        }
      ],
      "name": "editTask",
      "outputs": [],
      "stateMutability": "nonpayable",
      "type": "function"
    },
    {
      "inputs": [],
      "name": "getTasks",
      "outputs": [
        {
          "components": [
            {
              "internalType": "uint256",
              "name": "id",
              "type": "uint256"
            },
            {
              "internalType": "string",
              "name": "title",
              "type": "string"
            },
            {
              "internalType": "bool",
              "name": "finished",
              "type": "bool"
            }
          ],
          "internalType": "struct Tasks.Task[]",
          "name": "",
          "type": "tuple[]"
        }
      ],
      "stateMutability": "view",
      "type": "function"
    },
    {
      "inputs": [],
      "name": "getTasksCount",
      "outputs": [
        {
          "internalType": "uint256",
          "name": "",
          "type": "uint256"
        }
      ],
      "stateMutability": "view",
      "type": "function"
    },
    {
      "inputs": [],
      "name": "taskCount",
      "outputs": [
        {
          "internalType": "uint256",
          "name": "",
          "type": "uint256"
        }
      ],
      "stateMutability": "view",
      "type": "function"
    },
    {
      "inputs": [
        {
          "internalType": "uint256",
          "name": "",
          "type": "uint256"
        }
      ],
      "name": "tasks",
      "outputs": [
        {
          "internalType": "uint256",
          "name": "id",
          "type": "uint256"
        },
        {
          "internalType": "string",
          "name": "title",
          "type": "string"
        },
        {
          "internalType": "bool",
          "name": "finished",
          "type": "bool"
        }
      ],
      "stateMutability": "view",
      "type": "function"
    },
    {
      "inputs": [
        {
          "internalType": "uint256",
          "name": "_id",
          "type": "uint256"
        }
      ],
      "name": "toggleTask",
      "outputs": [],
      "stateMutability": "nonpayable",
      "type": "function"
    }
  ],
  "bytecode": "0x608060405234801561001057600080fd5b5033600160006101000a81548173ffffffffffffffffffffffffffffffffffffffff021916908373ffffffffffffffffffffffffffffffffffffffff160217905550610ebf806100616000396000f3fe608060405234801561001057600080fd5b506004361061007d5760003560e01c80638d9776721161005b5780638d977672146100d85780639f8992731461010a578063b6cb58a514610128578063cb7bd995146101465761007d565b806304a87e3814610082578063111002aa146100a0578063613137a4146100bc575b600080fd5b61008a610162565b6040516100979190610b40565b60405180910390f35b6100ba60048036038101906100b591906108fb565b610278565b005b6100d660048036038101906100d1919061093c565b6103be565b005b6100f260048036038101906100ed919061093c565b61058a565b60405161010193929190610bd6565b60405180910390f35b610112610659565b60405161011f9190610b62565b60405180910390f35b610130610662565b60405161013d9190610b62565b60405180910390f35b610160600480360381019061015b9190610965565b610668565b005b60606002805480602002602001604051908101604052809291908181526020016000905b8282101561026f5783829060005260206000209060030201604051806060016040529081600082015481526020016001820180546101c390610d28565b80601f01602080910402602001604051908101604052809291908181526020018280546101ef90610d28565b801561023c5780601f106102115761010080835404028352916020019161023c565b820191906000526020600020905b81548152906001019060200180831161021f57829003601f168201915b505050505081526020016002820160009054906101000a900460ff16151515158152505081526020019060010190610186565b50505050905090565b3373ffffffffffffffffffffffffffffffffffffffff16600160009054906101000a900473ffffffffffffffffffffffffffffffffffffffff1673ffffffffffffffffffffffffffffffffffffffff16146102d257600080fd5b6000808154809291906102e490610d8b565b919050555060026040518060600160405280600054815260200183815260200160001515815250908060018154018082558091505060019003906000526020600020906003020160009091909190915060008201518160000155602082015181600101908051906020019061035a9291906107db565b5060408201518160020160006101000a81548160ff02191690831515021790555050507fade7e4002c603c6b6d87de1cada8bc224b495d64ec237bf84aa7c199b22ab4416000548260006040516103b393929190610bd6565b60405180910390a150565b60005b600280549050811015610586578160028281548110610409577f4e487b7100000000000000000000000000000000000000000000000000000000600052603260045260246000fd5b90600052602060002090600302016000015414156104e2576002818154811061045b577f4e487b7100000000000000000000000000000000000000000000000000000000600052603260045260246000fd5b906000526020600020906003020160020160009054906101000a900460ff1615600282815481106104b5577f4e487b7100000000000000000000000000000000000000000000000000000000600052603260045260246000fd5b906000526020600020906003020160020160006101000a81548160ff021916908315150217905550610586565b7fe21fa966ca5cd02748c0752352d18c48165e61cb55b4c29cccf924b5a95fcff1826002838154811061053e577f4e487b7100000000000000000000000000000000000000000000000000000000600052603260045260246000fd5b906000526020600020906003020160020160009054906101000a900460ff1660405161056b929190610b7d565b60405180910390a1808061057e90610d8b565b9150506103c1565b5050565b6002818154811061059a57600080fd5b90600052602060002090600302016000915090508060000154908060010180546105c390610d28565b80601f01602080910402602001604051908101604052809291908181526020018280546105ef90610d28565b801561063c5780601f106106115761010080835404028352916020019161063c565b820191906000526020600020905b81548152906001019060200180831161061f57829003601f168201915b5050505050908060020160009054906101000a900460ff16905083565b60008054905090565b60005481565b3373ffffffffffffffffffffffffffffffffffffffff16600160009054906101000a900473ffffffffffffffffffffffffffffffffffffffff1673ffffffffffffffffffffffffffffffffffffffff16146106c257600080fd5b60005b6002805490508110156107d657826002828154811061070d577f4e487b7100000000000000000000000000000000000000000000000000000000600052603260045260246000fd5b906000526020600020906003020160000154141561078a578160028281548110610760577f4e487b7100000000000000000000000000000000000000000000000000000000600052603260045260246000fd5b906000526020600020906003020160010190805190602001906107849291906107db565b506107d6565b7f126a0ea5197c062eb92c789989294eb8d2aef31cf41fd012da26dfab98b29a1683836040516107bb929190610ba6565b60405180910390a180806107ce90610d8b565b9150506106c5565b505050565b8280546107e790610d28565b90600052602060002090601f0160209004810192826108095760008555610850565b82601f1061082257805160ff1916838001178555610850565b82800160010185558215610850579182015b8281111561084f578251825591602001919060010190610834565b5b50905061085d9190610861565b5090565b5b8082111561087a576000816000905550600101610862565b5090565b600061089161088c84610c39565b610c14565b9050828152602081018484840111156108a957600080fd5b6108b4848285610ce6565b509392505050565b600082601f8301126108cd57600080fd5b81356108dd84826020860161087e565b91505092915050565b6000813590506108f581610e72565b92915050565b60006020828403121561090d57600080fd5b600082013567ffffffffffffffff81111561092757600080fd5b610933848285016108bc565b91505092915050565b60006020828403121561094e57600080fd5b600061095c848285016108e6565b91505092915050565b6000806040838503121561097857600080fd5b6000610986858286016108e6565b925050602083013567ffffffffffffffff8111156109a357600080fd5b6109af858286016108bc565b9150509250929050565b60006109c58383610ad2565b905092915050565b60006109d882610c7a565b6109e28185610c9d565b9350836020820285016109f485610c6a565b8060005b85811015610a305784840389528151610a1185826109b9565b9450610a1c83610c90565b925060208a019950506001810190506109f8565b50829750879550505050505092915050565b610a4b81610cd0565b82525050565b610a5a81610cd0565b82525050565b6000610a6b82610c85565b610a758185610cae565b9350610a85818560208601610cf5565b610a8e81610e61565b840191505092915050565b6000610aa482610c85565b610aae8185610cbf565b9350610abe818560208601610cf5565b610ac781610e61565b840191505092915050565b6000606083016000830151610aea6000860182610b22565b5060208301518482036020860152610b028282610a60565b9150506040830151610b176040860182610a42565b508091505092915050565b610b2b81610cdc565b82525050565b610b3a81610cdc565b82525050565b60006020820190508181036000830152610b5a81846109cd565b905092915050565b6000602082019050610b776000830184610b31565b92915050565b6000604082019050610b926000830185610b31565b610b9f6020830184610a51565b9392505050565b6000604082019050610bbb6000830185610b31565b8181036020830152610bcd8184610a99565b90509392505050565b6000606082019050610beb6000830186610b31565b8181036020830152610bfd8185610a99565b9050610c0c6040830184610a51565b949350505050565b6000610c1e610c2f565b9050610c2a8282610d5a565b919050565b6000604051905090565b600067ffffffffffffffff821115610c5457610c53610e32565b5b610c5d82610e61565b9050602081019050919050565b6000819050602082019050919050565b600081519050919050565b600081519050919050565b6000602082019050919050565b600082825260208201905092915050565b600082825260208201905092915050565b600082825260208201905092915050565b60008115159050919050565b6000819050919050565b82818337600083830152505050565b60005b83811015610d13578082015181840152602081019050610cf8565b83811115610d22576000848401525b50505050565b60006002820490506001821680610d4057607f821691505b60208210811415610d5457610d53610e03565b5b50919050565b610d6382610e61565b810181811067ffffffffffffffff82111715610d8257610d81610e32565b5b80604052505050565b6000610d9682610cdc565b91507fffffffffffffffffffffffffffffffffffffffffffffffffffffffffffffffff821415610dc957610dc8610dd4565b5b600182019050919050565b7f4e487b7100000000000000000000000000000000000000000000000000000000600052601160045260246000fd5b7f4e487b7100000000000000000000000000000000000000000000000000000000600052602260045260246000fd5b7f4e487b7100000000000000000000000000000000000000000000000000000000600052604160045260246000fd5b6000601f19601f8301169050919050565b610e7b81610cdc565b8114610e8657600080fd5b5056fea2646970667358221220ae69539202c2d0cd78f4715c2b9e4066286e874a95a2c3418fe39e6a3488c94e64736f6c63430008040033",
  "linkReferences": {},
  "deployedLinkReferences": {}
}