{
  "_format": "hh-sol-artifact-1",
  "contractName": "Tasks",
  "sourceName": "contracts/Tasks.sol",
  "abi": [
    {
      "inputs": [],
      "stateMutability": "nonpayable",
      "type": "constructor"
    },
    {
      "anonymous": false,
      "inputs": [
        {
          "indexed": false,
          "internalType": "uint256",
          "name": "id",
          "type": "uint256"
        },
        {
          "indexed": false,
          "internalType": "string",
          "name": "title",
          "type": "string"
        },
        {
          "indexed": false,
          "internalType": "bool",
          "name": "finished",
          "type": "bool"
        }
      ],
      "name": "AddedTask",
      "type": "event"
    },
    {
      "anonymous": false,
      "inputs": [
        {
          "indexed": false,
          "internalType": "uint256",
          "name": "id",
          "type": "uint256"
        },
        {
          "indexed": false,
          "internalType": "bool",
          "name": "finished",
          "type": "bool"
        }
      ],
      "name": "TaskCompleted",
      "type": "event"
    },
    {
      "anonymous": false,
      "inputs": [
        {
          "indexed": false,
          "internalType": "uint256",
          "name": "id",
          "type": "uint256"
        },
        {
          "indexed": false,
          "internalType": "string",
          "name": "title",
          "type": "string"
        }
      ],
      "name": "TaskEdited",
      "type": "event"
    },
    {
      "inputs": [
        {
          "internalType": "string",
          "name": "_title",
          "type": "string"
        }
      ],
      "name": "createTask",
      "outputs": [],
      "stateMutability": "nonpayable",
      "type": "function"
    },
    {
      "inputs": [
        {
          "internalType": "uint256",
          "name": "_id",
          "type": "uint256"
        },
        {
          "internalType": "string",
          "name": "_title",
          "type": "string"
        }
      ],
      "name": "editTask",
      "outputs": [],
      "stateMutability": "nonpayable",
      "type": "function"
    },
    {
      "inputs": [],
      "name": "getTasks",
      "outputs": [
        {
          "components": [
            {
              "internalType": "uint256",
              "name": "id",
              "type": "uint256"
            },
            {
              "internalType": "string",
              "name": "title",
              "type": "string"
            },
            {
              "internalType": "bool",
              "name": "finished",
              "type": "bool"
            }
          ],
          "internalType": "struct Tasks.Task[]",
          "name": "",
          "type": "tuple[]"
        }
      ],
      "stateMutability": "view",
      "type": "function"
    },
    {
      "inputs": [],
      "name": "getTasksCount",
      "outputs": [
        {
          "internalType": "uint256",
          "name": "",
          "type": "uint256"
        }
      ],
      "stateMutability": "view",
      "type": "function"
    },
    {
      "inputs": [],
      "name": "taskCount",
      "outputs": [
        {
          "internalType": "uint256",
          "name": "",
          "type": "uint256"
        }
      ],
      "stateMutability": "view",
      "type": "function"
    },
    {
      "inputs": [
        {
          "internalType": "uint256",
          "name": "",
          "type": "uint256"
        }
      ],
      "name": "tasks",
      "outputs": [
        {
          "internalType": "uint256",
          "name": "id",
          "type": "uint256"
        },
        {
          "internalType": "string",
          "name": "title",
          "type": "string"
        },
        {
          "internalType": "bool",
          "name": "finished",
          "type": "bool"
        }
      ],
      "stateMutability": "view",
      "type": "function"
    },
    {
      "inputs": [
        {
          "internalType": "uint256",
          "name": "_id",
          "type": "uint256"
        }
      ],
      "name": "toggleTask",
      "outputs": [],
      "stateMutability": "nonpayable",
      "type": "function"
    }
  ],
  "bytecode": "0x608060405234801561001057600080fd5b5033600160006101000a81548173ffffffffffffffffffffffffffffffffffffffff021916908373ffffffffffffffffffffffffffffffffffffffff160217905550610f09806100616000396000f3fe608060405234801561001057600080fd5b506004361061007d5760003560e01c80638d9776721161005b5780638d977672146100d85780639f8992731461010a578063b6cb58a514610128578063cb7bd995146101465761007d565b806304a87e3814610082578063111002aa146100a0578063613137a4146100bc575b600080fd5b61008a610162565b6040516100979190610b56565b60405180910390f35b6100ba60048036038101906100b59190610911565b610278565b005b6100d660048036038101906100d19190610952565b6103be565b005b6100f260048036038101906100ed9190610952565b610595565b60405161010193929190610bec565b60405180910390f35b610112610664565b60405161011f9190610b78565b60405180910390f35b61013061066d565b60405161013d9190610b78565b60405180910390f35b610160600480360381019061015b919061097b565b610673565b005b60606002805480602002602001604051908101604052809291908181526020016000905b8282101561026f5783829060005260206000209060030201604051806060016040529081600082015481526020016001820180546101c390610d72565b80601f01602080910402602001604051908101604052809291908181526020018280546101ef90610d72565b801561023c5780601f106102115761010080835404028352916020019161023c565b820191906000526020600020905b81548152906001019060200180831161021f57829003601f168201915b505050505081526020016002820160009054906101000a900460ff16151515158152505081526020019060010190610186565b50505050905090565b3373ffffffffffffffffffffffffffffffffffffffff16600160009054906101000a900473ffffffffffffffffffffffffffffffffffffffff1673ffffffffffffffffffffffffffffffffffffffff16146102d257600080fd5b6000808154809291906102e490610dd5565b919050555060026040518060600160405280600054815260200183815260200160001515815250908060018154018082558091505060019003906000526020600020906003020160009091909190915060008201518160000155602082015181600101908051906020019061035a9291906107f1565b5060408201518160020160006101000a81548160ff02191690831515021790555050507fade7e4002c603c6b6d87de1cada8bc224b495d64ec237bf84aa7c199b22ab4416000548260006040516103b393929190610bec565b60405180910390a150565b60005b60016002805490506103d39190610ce6565b8111610591578160028281548110610414577f4e487b7100000000000000000000000000000000000000000000000000000000600052603260045260246000fd5b90600052602060002090600302016000015414156104ed5760028181548110610466577f4e487b7100000000000000000000000000000000000000000000000000000000600052603260045260246000fd5b906000526020600020906003020160020160009054906101000a900460ff1615600282815481106104c0577f4e487b7100000000000000000000000000000000000000000000000000000000600052603260045260246000fd5b906000526020600020906003020160020160006101000a81548160ff021916908315150217905550610591565b7fe21fa966ca5cd02748c0752352d18c48165e61cb55b4c29cccf924b5a95fcff18260028381548110610549577f4e487b7100000000000000000000000000000000000000000000000000000000600052603260045260246000fd5b906000526020600020906003020160020160009054906101000a900460ff16604051610576929190610b93565b60405180910390a1808061058990610dd5565b9150506103c1565b5050565b600281815481106105a557600080fd5b90600052602060002090600302016000915090508060000154908060010180546105ce90610d72565b80601f01602080910402602001604051908101604052809291908181526020018280546105fa90610d72565b80156106475780601f1061061c57610100808354040283529160200191610647565b820191906000526020600020905b81548152906001019060200180831161062a57829003601f168201915b5050505050908060020160009054906101000a900460ff16905083565b60008054905090565b60005481565b3373ffffffffffffffffffffffffffffffffffffffff16600160009054906101000a900473ffffffffffffffffffffffffffffffffffffffff1673ffffffffffffffffffffffffffffffffffffffff16146106cd57600080fd5b60005b60016002805490506106e29190610ce6565b81116107ec578260028281548110610723577f4e487b7100000000000000000000000000000000000000000000000000000000600052603260045260246000fd5b90600052602060002090600302016000015414156107a0578160028281548110610776577f4e487b7100000000000000000000000000000000000000000000000000000000600052603260045260246000fd5b9060005260206000209060030201600101908051906020019061079a9291906107f1565b506107ec565b7f126a0ea5197c062eb92c789989294eb8d2aef31cf41fd012da26dfab98b29a1683836040516107d1929190610bbc565b60405180910390a180806107e490610dd5565b9150506106d0565b505050565b8280546107fd90610d72565b90600052602060002090601f01602090048101928261081f5760008555610866565b82601f1061083857805160ff1916838001178555610866565b82800160010185558215610866579182015b8281111561086557825182559160200191906001019061084a565b5b5090506108739190610877565b5090565b5b80821115610890576000816000905550600101610878565b5090565b60006108a76108a284610c4f565b610c2a565b9050828152602081018484840111156108bf57600080fd5b6108ca848285610d30565b509392505050565b600082601f8301126108e357600080fd5b81356108f3848260208601610894565b91505092915050565b60008135905061090b81610ebc565b92915050565b60006020828403121561092357600080fd5b600082013567ffffffffffffffff81111561093d57600080fd5b610949848285016108d2565b91505092915050565b60006020828403121561096457600080fd5b6000610972848285016108fc565b91505092915050565b6000806040838503121561098e57600080fd5b600061099c858286016108fc565b925050602083013567ffffffffffffffff8111156109b957600080fd5b6109c5858286016108d2565b9150509250929050565b60006109db8383610ae8565b905092915050565b60006109ee82610c90565b6109f88185610cb3565b935083602082028501610a0a85610c80565b8060005b85811015610a465784840389528151610a2785826109cf565b9450610a3283610ca6565b925060208a01995050600181019050610a0e565b50829750879550505050505092915050565b610a6181610d1a565b82525050565b610a7081610d1a565b82525050565b6000610a8182610c9b565b610a8b8185610cc4565b9350610a9b818560208601610d3f565b610aa481610eab565b840191505092915050565b6000610aba82610c9b565b610ac48185610cd5565b9350610ad4818560208601610d3f565b610add81610eab565b840191505092915050565b6000606083016000830151610b006000860182610b38565b5060208301518482036020860152610b188282610a76565b9150506040830151610b2d6040860182610a58565b508091505092915050565b610b4181610d26565b82525050565b610b5081610d26565b82525050565b60006020820190508181036000830152610b7081846109e3565b905092915050565b6000602082019050610b8d6000830184610b47565b92915050565b6000604082019050610ba86000830185610b47565b610bb56020830184610a67565b9392505050565b6000604082019050610bd16000830185610b47565b8181036020830152610be38184610aaf565b90509392505050565b6000606082019050610c016000830186610b47565b8181036020830152610c138185610aaf565b9050610c226040830184610a67565b949350505050565b6000610c34610c45565b9050610c408282610da4565b919050565b6000604051905090565b600067ffffffffffffffff821115610c6a57610c69610e7c565b5b610c7382610eab565b9050602081019050919050565b6000819050602082019050919050565b600081519050919050565b600081519050919050565b6000602082019050919050565b600082825260208201905092915050565b600082825260208201905092915050565b600082825260208201905092915050565b6000610cf182610d26565b9150610cfc83610d26565b925082821015610d0f57610d0e610e1e565b5b828203905092915050565b60008115159050919050565b6000819050919050565b82818337600083830152505050565b60005b83811015610d5d578082015181840152602081019050610d42565b83811115610d6c576000848401525b50505050565b60006002820490506001821680610d8a57607f821691505b60208210811415610d9e57610d9d610e4d565b5b50919050565b610dad82610eab565b810181811067ffffffffffffffff82111715610dcc57610dcb610e7c565b5b80604052505050565b6000610de082610d26565b91507fffffffffffffffffffffffffffffffffffffffffffffffffffffffffffffffff821415610e1357610e12610e1e565b5b600182019050919050565b7f4e487b7100000000000000000000000000000000000000000000000000000000600052601160045260246000fd5b7f4e487b7100000000000000000000000000000000000000000000000000000000600052602260045260246000fd5b7f4e487b7100000000000000000000000000000000000000000000000000000000600052604160045260246000fd5b6000601f19601f8301169050919050565b610ec581610d26565b8114610ed057600080fd5b5056fea264697066735822122094f487f665ed40b1888705003bd4ad08be9079b3eba1d6bb49fbfa09e361012f64736f6c63430008040033",
  "linkReferences": {},
  "deployedLinkReferences": {}
}